:020000040800F2
:10800000B0DC002085BC0008099700081397000821
:108010001D9700082797000831970008000000000E
:10802000000000000000000000000000598200086D
:1080300045970008000000008D8200088FF10008BD
:108040009FBC00089FBC00089FBC00089FBC0008A4
:108050009FBC00089FBC00089FBC00089FBC000894
:108060009FBC00089FBC00089FBC00089FBC000884
:108070009FBC00089FBC00089FBC00089FBC000874
:108080009FBC00089FBC00089FBC00089FBC000864
:108090009FBC00089FBC00089FBC00089FBC000854
:1080A0009FBC00089FBC00089FBC00089FBC000844
:1080B0009FBC000855D000089FBC00089FBC00086A
:1080C0009FBC00089FBC00089FBC00089FBC000824
:1080D0009FBC0008652401089FBC00089FBC0008E5
:1080E000398F01089FBC00089FBC00089FBC000896
:1080F0009FBC00089FBC00089FBC00089FBC0008F4
:108100009FBC00089FBC00089FBC00089FBC0008E3
:108110009FBC00089FBC0008C3D000089FBC00089B
:108120009FBC00089FBC00089FBC00089FBC0008C3
:1081300000F002F800F080F80AA090E8000C8244F9
:108140008344AAF10107DA4501D100F075F8AFF2D6
:10815000090EBAE80F0013F0010F18BFFB1A43F025
:108160000103184718CB010038CB01000A444FF037
:10817000000C10F8013B13F0070408BF10F8014B86
:108180001D1108BF10F8015B641E05D010F8016BCB
:10819000641E01F8016BF9D113F0080F1EBF10F82F
:1081A000014BAD1C0C1B09D16D1E58BF01F801CB52
:1081B000FAD505E014F8016B01F8016B6D1EF9D5D5
:1081C0009142D6D3704700000023002400250026EA
:1081D000103A28BF78C1FBD8520728BF30C148BF2A
:1081E0000B607047642919F05F80752919F05C8075
:1081F000732919F0B6840020704710B510BD704780
:1082000054656D636F5433364354410000000013CE
:10821000003530001FB519F056FA19F0A1FD040021
:10822000002000211BF030F9401C6060002000217C
:108230001BF040F9E0601FBD19F0CCFF1146FFF7BD
:10824000E9FF01F04FF91AF03DFA03B4FFF7D5FF4B
:1082500003BC07F03DF800001A4B19680868B0E845
:10826000F00F80F309884FF0000080F311884EF082
:108270000D0E70470000000003480068006880F39E
:10828000088862B600DF00BF08ED00E0EFF3098068
:108290000C4B1A6820E9F00F106008B54FF0BF00D2
:1082A00080F3118806F0AEFC4FF0000080F31188D7
:1082B000BDE8084019680868B0E8F00F80F3098845
:1082C000704700BFCC00002001B44FF0BF0080F326
:1082D000118801BC704701B44FF0000080F3118891
:1082E00001BC70470B49D1F800C04A685CF8043BF8
:1082F0001068184442F8040B8C4528BFA1F1DC0C2F
:108300008A4228BFA1F1DC02C1F800C04A6020F017
:108310000040704738D6002010B501210D2002F032
:10832000B5F90121F84801F094FF10BD10B50446DD
:10833000204611F0C3FD10BD1CB5002500BFF34859
:108340000078002874D0F24800788DF800000320EF
:108350008DF8010000208DF8020064208DF80300E4
:1083600000208DF8040002208DF80500142D22D184
:108370000DF07CFE002405E01DF804000DF07CFEED
:10838000601CC4B2062CF7DBE24800788DF80600CA
:10839000E14800788DF80700E048009901600199F4
:1083A00041600120DE49086008200AF042F90020FF
:1083B000DC49087090E0282D2BD101208DF80200B7
:1083C00030208DF8030002208DF805000DF04EFEE0
:1083D000002405E01DF804000DF04EFE601CC4B240
:1083E000062CF7DBCB4800788DF80600CA480078E9
:1083F0008DF80700C948009901600199416001208A
:10840000C749086008200AF014F90120C54908701E
:1084100062E03C2D2CD102208DF802001A208DF84C
:10842000030002208DF805000DF020FE002406E078
:1084300054E01DF804000DF01FFE601CC4B2062CB1
:10844000F7DBB44800788DF80600B34800788DF863
:108450000700B24800990160019941600120B049CC
:10846000086008200AF0E5F80220AE49087033E001
:10847000502D2BD101208DF80200EA208DF8030049
:1084800002208DF805000DF0F1FD002405E01DF837
:1084900004000DF0F1FD601CC4B2062CF7DB9D4812
:1084A00000788DF806009C4800788DF807009B48FE
:1084B00000990160019941600120994908600820F4
:1084C0000AF0B7F803209749087005E0782D03DD1E
:1084D000002500208D490870681C85B20A2006F02E
:1084E000C4FF2CE700BF00218F4805F0CFF900B290
:1084F0008E498F4A127821F8120001218A4805F02E
:10850000C5F901B28948801D894A127820F81210F5
:108510000221854805F0BAF901B284480C30844A3A
:10852000127820F8121003217F4805F0AFF901B24C
:108530007E4812307E4A127820F8121004217A48C0
:1085400005F0A4F901B279481830794A127820F878
:1085500012100521744805F099F901B273481E30D4
:10856000734A127820F8121071480078401C704944
:10857000087008460078022844D100206D49086040
:1085800048608860C86008614861002436E0694836
:108590000068664931F914100844664908600846C5
:1085A00041686248801D30F9140008446149486000
:1085B000084681685D480C3030F9140008445D4974
:1085C00088600846C1685948123030F914000844E0
:1085D0005849C860084601695448183030F91400F9
:1085E0000844544908610846416950481E3030F932
:1085F000140008444F494861601CC4B24C480078DC
:108600008442C4DB4A49087800EBD0714910A0EBE2
:108610004101474A11700A2006F027FF63E710F076
:1086200027FF10F063FF00BF01212A2011F081F81D
:108630000D2011F09BF85A282ED101203E490870D8
:108640003E490978012202EB4101C8B211F08EF8CF
:1086500086003A490978022202EB4101C8B211F0C2
:1086600085F806EB901536483449097830F8110042
:10867000401B04B2314801780078401C2F4A10702A
:108680002F4820F8115010460078032190FBF1F29A
:1086900001FB120029490870002C01DA604200E059
:1086A00020462849096888420CD9002C01DA60422A
:1086B00000E0204623494968884203D264202249C9
:1086C000087008E020480078002804DD1E48007883
:1086D000401E1D490870322006F0C7FEA4E770B5A1
:1086E0000446032C01DA002070BD18480078FF28EA
:1086F00031D0164800781649097988422BD01348A2
:10870000007838B30020EFE7000430000A000020B2
:108710000C000020AA010020A9010020506C0020BC
:10872000A00121420B0000200028014094150020E8
:108730002400002020050020090000201202002053
:108740000C0200201C00002070000020EC7E0020A5
:10875000906E0020FFE7FE484078032809D0FC48CF
:108760004078062805D0FA484078102801D000202B
:10877000BAE7A01EC1B2F6480DF08EFC0546601E99
:10878000F349095CA01EF24A105C01EB0020A842EC
:1087900001D10120A8E70020A6E708B510F037F9BD
:1087A00010F034F90022EB480178104610F04EFC2E
:1087B000E9490870E94810F0DEFBE948008810F04C
:1087C000D4FC032010F0F5F900BF642006F04DFE44
:1087D000E4480088401EE3490880084600880028D5
:1087E0004BD110F098FCE049086008460068DF496A
:1087F000884211D0DC480068DD4988420CD0DA4854
:108800000068DC49884207D0D7480068DA498842C6
:1088100002D0D648D44908604FF48051D74801F0BF
:10882000F4FC4FF47A7006F0F5FD4FF48051D34814
:1088300001F0EDFC642006F018FE0020D04908602D
:1088400004F042FA10F0E3F80022C2480178104622
:1088500010F0FCFBC0490870C04810F08CFBC04809
:10886000008810F082FC032010F0A3F9642006F0C9
:10887000FCFDC4480088BB490880C3480078002834
:10888000A3D0C0480088B7490880C0480078FFF7E7
:1088900026FF98B10DF0EAFBAD490A200BF0E4FA8F
:1088A000AB490A2009F0F1FE2C2002230090B848C1
:1088B0000278B849B848007810F02BFD0020B24982
:1088C000087082E705F0CAFD00BF05F042FE642093
:1088D00006F0CBFDF9E705F005FD00BF05F034FD1E
:1088E0000EF03AFD05F07AFD642006F0BEFDF5E7D6
:1088F00010B5AA48007860B90120A84908704FF463
:10890000FA71A74806F0D4FD42F21071A54806F0AE
:10891000CFFD08F0FAFCA44908800846008800282A
:1089200024DD4FF4006006F03EFEA04989898842AC
:108930000BD1012007F00EF89B480088002858DD75
:1089400008F0FDFA08F0E9FC53E040F6060006F0F6
:108950002AFE9649898988424BD108F084FA9248C8
:108960000088002845DD08F0D8FC42E08C4806F07D
:10897000B2FD00283DD08A4806F0A2FD002415E093
:1089800000BF04EB84008A4901EBC00089490860FC
:10899000022006F0DFFF00BF83480088002803DDC7
:1089A00008F0CDFA08F0B9FC601CC4B21E2CE7DB5D
:1089B000002413E000BF804800EB84107F4908606A
:1089C000052006F0C7FF00BF77480088002803DDB8
:1089D00008F0B5FA08F0A1FC601CC4B20A2CE9DB6F
:1089E000704806F078FD20B16E4806F069FD08F089
:1089F0008CF910BD002405E0322006F036FD70A091
:108A000018F008FC08F076FB0028F5D100BFFFF74E
:108A10006FFF72480078012803D071480078012860
:108A200009D1601CC4B20A2C05D1002400206B4976
:108A3000087009F017FE01F092FC022006F015FD07
:108A4000E5E709F004FE00BF6648007850B16548CC
:108A50000078401E6349087008460078012801D15B
:108A60000DF0DDFA60480078002809DD5E480078E6
:108A7000401E5D4908700846007808B909F0EAFC14
:108A8000052006F0F2FCDFE703F01CF900BF5748B1
:108A90000078401C5549087008460078022803DB1E
:108AA0000020087003F044F90A2006F0DEFCEEE72F
:108AB00000BF00242DE04E4830F81400012826D1D4
:108AC0004C4A12F83410A20002F1B50003F09EFFE8
:108AD000484A02EBC4025178A20002F1B60003F04A
:108AE00095FF444A02EBC4029178A20002F1B7005C
:108AF00003F08CFF3F4A02EBC402D178A20002F1DE
:108B0000B80003F083FF0020394921F81400601CED
:108B1000C4B2172CCFDB40F6B83006F0A6FCC8E78D
:108B200004F0AEFE00BFFFF7CFFB05F062F832485D
:108B30000088401C30490880084600880A2805D172
:108B4000002008800EF0E5FD0FF0A6FA56E00000C8
:108B5000EC7E00200002002018000020EE01002022
:108B600008020020D801002004020020C0CA893673
:108B7000C084C612400ECF1900A1BC3300100140C2
:108B800088812242DA010020DE010020DC01002081
:108B900099010020506E0020DD01002038000020E7
:108BA000280000203000002050010020B056002096
:108BB000B45E002058010020A06300205C0100206A
:108BC0007461706465765F696E69742829206661D6
:108BD000696C6564202E2E2E0D0A0000960100207F
:108BE000000000209F0100209D01002025000020A2
:108BF00038150020D46E002026000020FFF764FB0B
:108C0000C82006F032FC8EE77CB503F0CFFEFEA054
:108C10000EF0A3F8002003F0CDFEFD4908700120FE
:108C200003F0C8FEFA494870022003F0C3FEF84979
:108C30008870032003F0BEFEF549C870084600782E
:108C4000FF2811D108464078FF280DD108468078CA
:108C5000FF2809D10846C078FF2805D101200870F7
:108C6000487002208870C870E9480078E84949785F
:108C700000EB0120E74908601321042003F0C6FE41
:108C80000021052003F0C2FE062003F093FEE04918
:108C9000087108460079FF2802D00846007938B9E3
:108CA000FE20DB49087108460179062003F0AEFE7C
:108CB0005F20D74988731A2003F07CFED6490870DC
:108CC000084600787F2801DD032008701B2003F090
:108CD00071FE8DF800001C2003F06CFE8DF8010081
:108CE0009DF80000FF2801D1012000E000209DF840
:108CF0000110FF2901D1012100E00021084020B12D
:108D00004BF6C020C249888707E09DF801009DF816
:108D1000001040EA0120BE498887082003F04AFE7F
:108D2000BB49C8730846C07BFF2802D00846C07BF9
:108D300010B90220B649C873102003F03BFEB449B5
:108D40004873112003F036FEB1490874152003F072
:108D500031FEAF4908730846007B052801DD01207C
:108D60000873AB48007B062834D2DFE800F0030B21
:108D7000131B232B4FF41650A54988600620A749E2
:108D8000087028E04FF49640A14988600320A34969
:108D9000087020E04FF416409D49886002209F49EA
:108DA000087018E04FF461409949886001209B49A0
:108DB000087010E04FF4E130954988600120974930
:108DC000087008E04FF4963091498860012093497B
:108DD000087000E000BF00BF4FF4E13006F091FAE8
:108DE000E92003F0E7FD8DF800009DF80000212840
:108DF0000FDB9DF800007F280BDC002407E004F166
:108E0000E90003F0D7FD86490855601CC4B2102C58
:108E1000F5DBFB2003F0CEFD0546FA2003F0CAFD8A
:108E200045EA00207F490880084600884FF6FF7118
:108E3000884202D07B48008810B901207949088017
:108E4000FC2003F0B7FD7849087008460078FF2839
:108E500002D00846007810B90A2073490870FD2036
:108E600003F0A8FD0506FE2003F0A4FD45EA004539
:108E7000FF2003F09FFD45EA00254FF4807003F0CA
:108E800099FD0543694805600068401C10B16748BA
:108E9000006810B96648654908604FF4817003F0B6
:108EA00089FD054640F2011003F084FD45EA0020EB
:108EB00060490880084600885F4908805D4800884E
:108EC00028B15C4800884FF6FF71884204D15020D9
:108ED00059490880574908804FF4827003F06AFDB1
:108EE000054640F2031003F065FD45EA00205349B2
:108EF00008800846008828B1084600884FF6FF71B0
:108F0000884203D140F605504C4908804FF48370E5
:108F100003F050FD054640F2051003F04BFD45EA15
:108F2000002047490860084600684FF6FF718842F4
:108F300002D04348006810B93220414908604FF41C
:108F4000847003F037FD054640F2071003F032FD50
:108F500045EA00203A494860084640684FF6FF71EC
:108F6000884202D03648406818B940F2CA303449C5
:108F7000486040F2091003F01DFD324908701420CA
:108F800003F018FD224988740846807C032804D029
:108F90000846807C08B103208874002407E004F1AF
:108FA000280003F007FD0DF80400601CC4B2062C75
:108FB000F5DB9DF80000FF2825D19DF80100FF2872
:108FC00021D19DF80200FF281DD19DF80300FF2844
:108FD00019D19DF80400FF2815D19DF80500FF2840
:108FE00011D104208DF8000002208DF801003520F9
:108FF0008DF80200AF208DF8030000208DF80400EA
:1090000001208DF805001FE054335F3643544100C2
:10901000906E002004000020A40100209E0100208A
:10902000EE010020FE0100200002002004020020CA
:10903000C0CA8936DA010020D801002008020020C9
:109040001C0000200C000020002405E01DF8041086
:10905000FE480155601CC4B2062CF7DB002407E073
:1090600004F12F0003F0A6FC0DF80400601CC4B24C
:10907000042CF5DB9DF80000FF282BD19DF80100A2
:10908000FF2827D19DF80200FF2823D19DF8030077
:10909000FF281FD1C0208DF80000A8208DF8010006
:1090A00000208DF8020003208DF803009DF80010C9
:1090B0002F2003F0ABFC9DF80110302003F0A6FC3C
:1090C0009DF80210312003F0A1FC9DF8031032201E
:1090D00003F09CFC002409E01DF80410DB48801D0F
:1090E0000155015D11300155601CC4B2042CF3DB45
:1090F0002E2003F05FFC8DF800009DF80000012891
:1091000007DD00208DF800009DF800102E2003F0F0
:109110007DFC9DF80000CD49143988770846807F92
:1091200081F82F00002407E004F1330003F042FC33
:109130000DF80400601CC4B2042CF5DB9DF800009F
:10914000FF2828D19DF80100FF2824D19DF80200B6
:10915000FF2820D19DF80300FF281CD18DF80000C6
:109160008DF801008DF8020000208DF803009DF8B5
:109170000010332003F04AFC9DF80110342003F066
:1091800045FC9DF80210352003F040FC9DF80310CB
:10919000362003F03BFC002409E01DF80410AB4826
:1091A0000B300155015D11300155601CC4B2042C17
:1091B000F3DB002407E004F1370003F0FBFB0DF8BC
:1091C0000400601CC4B2042CF5DB9DF80000FF28ED
:1091D0002BD19DF80100FF2827D19DF80200FF2820
:1091E00023D19DF80300FF281FD1C0208DF8000077
:1091F000A8208DF8010000208DF8020004208DF8D1
:1092000003009DF80010372003F000FC9DF80110CA
:10921000382003F0FBFB9DF80210392003F0F6FB29
:109220009DF803103A2003F0F1FB002409E01DF83B
:10923000041086480F300155015D11300155601C46
:10924000C4B2042CF3DB3B2003F0B4FB8DF8000028
:109250009DF80000FF2807D100208DF800009DF840
:1092600000103B2003F0D2FB9DF800007749143931
:1092700081F82700084690F8270081F838003C2044
:1092800003F098FB8DF800003D2003F093FB8DF870
:1092900001009DF80000FF2812D19DF80100FF2871
:1092A0000ED14FF4FB706949143908850846008DCA
:1092B000000A8DF80000084690F828008DF801009B
:1092C0009DF801009DF8001040EA01205F49143923
:1092D00008850846008D4887002081F83E00C87444
:1092E0000024FBE004F1400003F064FBC4EBC40184
:1092F00001EB0411564A02EB410181F82200C4EB54
:10930000C40000EB0410114601EB400090F822006D
:10931000FF2808D10520C4EBC40101EB041102EBC6
:10932000410181F8220004F14D0003F043FBC4EB3E
:10933000C40101EB0411464A02EB410181F82D0002
:10934000C4EBC40000EB0410114601EB400090F8A0
:109350002D00FF2808D10020C4EBC40101EB04114B
:1093600002EB410181F82D00610001F15A0003F088
:1093700021FBC4EBC40101EB0411354A02EB4101AE
:1093800081F82B00610001F15B0003F013FBC4EBDB
:10939000C40101EB04112E4A02EB410181F82C00BB
:1093A0009DF80100FF282AD19DF80200FF2826D150
:1093B0000120C4EBC40101EB041102EB410181F86F
:1093C0002B00F420C4EBC40101EB041102EB4101BA
:1093D00081F82C00C4EBC40000EB0410114601EB33
:1093E000400090F82B008DF80100C4EBC40000EBA6
:1093F000041001EB400090F82C008DF80200A10051
:1094000001F1B50003F0D6FA1049303101F834000B
:10941000A10001F1B60003F0CDFA01460B4830304F
:1094200000EBC4004170A10001F1B70003F0C2FAE3
:1094300001460648303000EBC4008170A10001F104
:10944000B80003F0B7FA0146004803E0A46E00201C
:10945000E8750020303000EBC400C170874810F878
:109460003400FF2838D1854800EBC4004078FF283D
:1094700032D1824800EBC4008078FF282CD17F488D
:1094800000EBC400C078FF2826D100217B4840F8BB
:109490003410024612F83410A20002F1B50003F0B5
:1094A000B5FA764A02EBC4025178A20002F1B60086
:1094B00003F0ACFA714A02EBC4029178A20002F107
:1094C000B70003F0A3FA6D4A02EBC402D178A20000
:1094D00002F1B80003F09AFA601CC4B2172CFFF630
:1094E00001AF7CBD1FB56649080300F094FAFEF792
:1094F00013FF4FF4A06000F057FA0121202001F083
:10950000C5F8482005F062FF0FF0B2FF0FF0EEFF44
:1095100001212A2010F00DF90D2010F027F95A280A
:1095200002D1012057490870FFF76EFB0EF073FE61
:1095300003F042FB03F0C8FB0FF056FA52A017F0FD
:1095400069FE00200323CDE90030029003464FF46A
:10955000807250A10390514805F0E6F800200123E5
:10956000CDE900300290034680224DA10390AFF672
:10957000BF2005F0D9F800200223CDE90030029089
:109580000346802249A103904A4805F0CDF8002007
:109590000323CDE9003002900346802246A10390C8
:1095A000474805F0C1F800200423CDE900300290BF
:1095B00003464FF4C07243A10390434805F0B4F84A
:1095C00000200223CDE900300290034680223FA113
:1095D0000390AFF6FD4005F0A7F800200223CDE987
:1095E00000300290034680223AA10390AFF62B5040
:1095F00005F09AF800200423CDE9003002900346DC
:10960000802235A10390AFF66D6005F08DF8002043
:109610000223CDE900300290034680222FA103905F
:10962000314805F081F800200223CDE90030029096
:10963000034680222DA103902E4805F075F80020E6
:109640000123CDE900300290034680221AA1039045
:10965000294805F069F800200223CDE90030029086
:109660000346802225A10390264805F05DF805F009
:10967000E3FB002004B010BD70477047D46E00209B
:10968000008000080900002054335F73657269652B
:10969000730A0D00494E505554530000218B0008A9
:1096A00053544F5245454550000000004C4544304E
:1096B00000000000898A0008434F4D4D0000000063
:1096C000438A00084E455400F58900084F55545010
:1096D000555453004B45590052464D0041434345B4
:1096E0004C45524F000000001F860008474554417A
:1096F00043000000E58400083983000841495246D0
:109700004C4F57002D83000810B516A017F082FDAE
:1097100010BD02E016A017F07DFDFBE702E017A0E8
:1097200017F078FDFBE702E017A017F073FDFBE7E9
:1097300002E018A017F06EFDFBE710B519A017F0B6
:1097400069FD10BD10B519A017F064FD10BD10B56E
:1097500018A017F05FFD10BD10B518A017F05AFD46
:1097600010BD00004E4D49206661756C740000000C
:1097700048617264204661756C7420004D656D20EF
:109780004661756C74200000427573204661756CEB
:10979000742000005573616765204661756C742004
:1097A000000000005356432000000000446562752D
:1097B0006720000050656E2000000000537973544C
:1097C00069636B20000000000CB500200190009040
:1097D0006C48006840F480306A49086000BF6948FE
:1097E000006800F4003000900198401C019000983F
:1097F00018B90198B0F5A06FF1D16248006800F483
:10980000003010B10120009001E00020009000988D
:10981000012843D15C48006840F010005A490860B4
:109820000846006820F0030008600846006840F021
:109830000200086053484068524948600846406842
:1098400048600846406840F48060486008464068C8
:1098500020F47C1048600846406840F4E8104860F6
:109860000846006840F08070086000BF4548006806
:1098700000F000700028F9D04248406820F0030052
:10988000404948600846406840F00200486000BF18
:109890003C48406800F00C000828F9D10CBD10B518
:1098A000FFF792FF10BD10B53648006840F0010088
:1098B00034490860084640683449084031494860E6
:1098C00008460068324908402E490860084600688A
:1098D00020F4802008600846406820F4FE004860BC
:1098E0004FF41F008860FFF7DAFF4FF0006029494E
:1098F000086010BD10B5002100200022214B5B68DC
:1099000003F00C0121B1042906D0082928D107E071
:10991000214B224C236027E01F4B204C236023E087
:10992000184B5B6803F47010164B5B6803F48032CD
:10993000022303EB904022B9194B4343174C236099
:109940000DE0104B5B6803F4003323B1144B434329
:10995000124C236003E0104B4343104C236003E0A0
:109960000D4B0E4C236000BF00BF064B5B68C3F37A
:1099700003130C4CE15C094B1B68CB40074C236084
:1099800010BD000000100240002002400000FFF85F
:10999000FFFFF6FE08ED00E000127A003C00002018
:1099A00000093D004000002031490143314A116067
:1099B000704770B5002100230F22C47804B32D4CEA
:1099C000246804F4E064C4F5E064210AC1F10403EE
:1099D000CA40447804FA03F1847814402143090111
:1099E000254C0678A155047804F01F050124AC40ED
:1099F00005786D11AD0005F1E025C5F8004109E0DD
:109A0000047804F01F050124AC401C4D0678761143
:109A100045F8264070BD1A4A0A400243154B1B1FE9
:109A20001A60704739B1134A121D12680243114B74
:109A30001B1D1A6006E00F4A121D126882430D4B6F
:109A40001B1D1A607047042808D14FF0E0210969F6
:109A500041F004014FF0E022116107E04FF0E021F6
:109A6000096921F004014FF0E02211617047000004
:109A70000000FA050CED00E000E400E080E100E009
:109A800080FFFF1F10B50446FA48844208D1012127
:109A9000401500F015FE0021601500F011FE17E0E2
:109AA000F548844208D10121001500F009FE00218B
:109AB000201500F005FE0BE0F048844208D101219A
:109AC000C80300F0FDFD00214FF4004000F0F8FD58
:109AD00010BD30B50246002000235068E84C2040FD
:109AE0000D790C6844EA0524204350609068E54CE9
:109AF0002040D1E902542C434D7944EA45042043E7
:109B00009060D06A20F470000C7C641EE4B22343A1
:109B100040EA0350D06230BD002101600171417103
:109B20008160C16001210174704721B1826842F0F7
:109B30000102826003E0826822F0010282607047C5
:109B400021B1826842F48072826003E0826822F46C
:109B500080728260704710B50023CBB21AB144689E
:109B60001C43446002E044689C43446010BD81682B
:109B700041F0080181607047014600208A6802F0C8
:109B800008020AB1012000E000207047816841F01E
:109B9000040181607047014600208A6802F00402D7
:109BA0000AB1012000E00020704721B1826842F430
:109BB000A002826003E0826822F4A0028260704703
:109BC000014600208A6802F480020AB1012000E008
:109BD0000020704710B50A4600210023416821F497
:109BE0006041531E41EA4331416010BD21B14268DA
:109BF00042F40062426003E0426822F40062426084
:109C00007047F0B504460D4600200021092D11DDF6
:109C1000E068A5F10A0606EB4607072606FA07F1F3
:109C20008843A5F10A0606EB460603FA06F1084347
:109C3000E0600CE0206905EB4507072606FA07F10E
:109C4000884305EB450603FA06F108432061072A1D
:109C50000FDA606B561E06EB86071F2606FA07F121
:109C60008843561E06EB860605FA06F10843606334
:109C700022E00D2A0FDA206BD61F06EB86071F267F
:109C800006FA07F18843D61F06EB860605FA06F1A9
:109C90000843206310E0E06AA2F10D0606EB860798
:109CA0001F2606FA07F18843A2F10D0606EB860689
:109CB00005FA06F10843E062F0BD21B1826842F482
:109CC0008012826003E0826822F480128260704712
:109CD0000146C86C80B2704766484C3000687047D7
:109CE00021B1426842F48062426003E0426822F49B
:109CF00080624260704721B1426842F48052426003
:109D000003E0426822F48052426070470A46002114
:109D1000816821F4E04111438160704721B182687C
:109D200042F40042826003E0826822F400428260D2
:109D3000704721B1826842F40212826003E08268B7
:109D400022F4021282607047014600208A6802F401
:109D500000120AB1012000E000207047F0B504466F
:109D60001546002000220026092911DDE068A1F136
:109D70000A0707EB470C072707FA0CF29043A1F1FB
:109D80000A0707EB470703FA07F21043E0600CE00D
:109D9000206901EB410C072707FA0CF2904301EB15
:109DA000410703FA07F210432061A06BC0F301568C
:109DB000EF1C06F1010CA7EB0C0707EB870C1F2724
:109DC00007FA0CF29043EF1C06F1010CA7EB0C070D
:109DD00007EB870701FA07F21043A063F0BD10B547
:109DE0000A4600210023816B21F44011531E41EAF1
:109DF0000351816310BD08B5002300930090009BC0
:109E00000B440093009B1A6008BD08B50246002071
:109E10000090009201F12800009B184400900098E7
:109E2000006880B208BD0A4600214168164B1940FF
:109E30001143416070474162826270470A460021C7
:109E4000416821F01F0111434160704740B1094949
:109E50000831096841F40001064A0832116007E040
:109E600004490831096821F40001024A08321160EE
:109E7000704700000024014000280140003C0140E0
:109E8000FFFEF0FFFDF7F1FFFFFD3FFF0246002060
:109E900013680B400BB1012000E000207047CA435B
:109EA0000260704770B502460020002300240B12A8
:109EB0005568CEB205EA060415681D4015B10CB10F
:109EC000012000E0002070BD00220A12D34303608D
:109ED00070470000002044490860091D0860091D02
:109EE0000860091D086041483F4914310860704707
:109EF00000213D498279002A3AD00A461268036857
:109F00009A430B461A600A1D126803689A430B1D98
:109F10001A60027911440A6803681A430A60324AD7
:109F20000832126803689A432F4B08331A601A1DCF
:109F3000126803689A432C4B0C331A604279102A3A
:109F40000ED11A1F126803681A43274B08331A6090
:109F50001A1D126803681A43234B0C331A600DE074
:109F60002149427911440A6803681A430A6005E0EE
:109F7000027911440A6803689A430A607047002115
:109F8000016001710C2141710021817170471649F6
:109F9000103109680143144A1032116070470146BC
:109FA0000020114A143212680A400AB1012000E070
:109FB000002070470C4914310860704701460020AA
:109FC0000022094B1B6803EA0102074B14331B688C
:109FD0000B4013B10AB1012000E000207047024994
:109FE000143108607047000000040140FFFF0F00BB
:109FF00010B50446CC48844208D10121042000F069
:10A000005FFB0021042000F05BFB46E0C748844270
:10A0100008D10121082000F053FB0021082000F0A6
:10A020004FFB3AE0C248844208D10121102000F0E1
:10A0300047FB0021102000F043FB2EE0BD48844286
:10A0400008D10121202000F03BFB0021202000F05E
:10A0500037FB22E0B848844208D10121402000F0BB
:10A060002FFB0021402000F02BFB16E0B348844278
:10A0700008D10121802000F023FB0021802000F086
:10A080001FFB0AE0AE48844207D10121801500F091
:10A0900017FB0021A01500F013FB10BD10B5012126
:10A0A000084600F00DFB0021012000F009FB10BD67
:10A0B0002DE9F0410246002500260020002300245F
:10A0C000002791F803C00CF00F0591F803C00CF0C5
:10A0D000100CBCF1000F03D091F802C04CEA05054A
:10A0E00091F800C0BCF1000F31D0146800202BE0C3
:10A0F0004FF0010C0CFA00F3B1F800C00CEA0306B3
:10A100009E4220D183004FF00F0C0CFA03F7BC43A2
:10A1100005FA03FC4CEA040491F803C0BCF1280FD3
:10A1200006D14FF0010C0CFA00FCC2F814C00AE092
:10A1300091F803C0BCF1480F05D14FF0010C0CFAA7
:10A1400000FCC2F810C0401C0828D1D31460B1F83C
:10A1500000C0BCF1FF0F34DD546800202EE000F198
:10A16000080C4FF0010808FA0CF3B1F800C00CEA33
:10A1700003069E4221D183004FF00F0C0CFA03F727
:10A18000BC4305FA03FC4CEA040491F803C0BCF19B
:10A19000280F05D100F1080C08FA0CF8C2F8148059
:10A1A00091F803C0BCF1480F07D100F1080C4FF043
:10A1B000010808FA0CF8C2F81080401C0828CED319
:10A1C0005460BDE8F0814FF6FF710180022181707B
:10A1D0000421C17070470246002093680B400BB108
:10A1E000012000E0002070470146886880B2704777
:10A1F00002460020D3680B400BB1012000E0002094
:10A2000070470146C86880B270470161704741617C
:10A2100070470AB1016100E041617047C160704759
:10A220004FF480320A43826181618261826982696E
:10A23000704702460020434B18684FF68073184061
:10A2400040EA021008433F4B186070473E49C8611E
:10A250007047F0B50A46002300240021002500F0D5
:10A260000046B6F1004F02D1364EF16901E0354E9D
:10A270007168C0F3034583B200F44016B6F5401F81
:10A2800008D121F070612F4E766826F070662D4F50
:10A290007E6012E000F48016B6F5801F06D103261A
:10A2A00006FA05F4A14341F0706106E0460D36015F
:10A2B00003FA06F6B14341F0706122B1460D360152
:10A2C00003FA06F6314300F00046B6F1004F02D122
:10A2D0001C4EF16101E01B4E7160F0BD30B50022F3
:10A2E0008B071C0F0F2303FA04F2164B08338C1054
:10A2F00053F824309343134C08348D1044F8253020
:10A3000023468C1053F824308C07240F00FA04F4F1
:10A3100023430C4C08348D1044F8253030BD0A49D5
:10A32000DC3108607047000000080140000C01406B
:10A33000001001400014014000180140001C0140C1
:10A340000020014000000140000020420E4908604A
:10A3500070470D49486070470B49886070474AF65E
:10A36000AA200949086070474CF6CC4006490860AD
:10A37000704701460020044AD2680A400AB1012011
:10A3800000E000207047000000300040E84800680E
:10A3900040F00100E649086008464068E549084089
:10A3A000E349486008460068E3490840E04908601E
:10A3B0000846006820F4802008600846406820F4C1
:10A3C000FE0048604FF41F0088607047D849096854
:10A3D00021F48031D64A11601146096821F48021A8
:10A3E0001160B0F5803F03D0B0F5802F0ED106E0AC
:10A3F000CF49096841F48031CD4A116007E0CC496A
:10A40000096841F4A021CA4A116000E000BF00BF02
:10A41000704710B501460022002300204A11012A8E
:10A4200002D1C34C236806E0022A02D1C04C236A41
:10A4300001E0BF4C636A01F01F02012494401C40FC
:10A440000CB1012000E0002010BD38B500200090C4
:10A450000024002500BF3120FFF7DBFF05460098F0
:10A46000401C00900098B0F5A06F01D0002DF2D0F4
:10A470003120FFF7CEFF08B1012400E00024204680
:10A4800038BD01460020AA4A106820F0F80040EAD2
:10A49000C10010607047A94908607047024600205B
:10A4A000A34B586820F47C1042EA01031843A04BE8
:10A4B00058607047A14908667047014600209C4AD1
:10A4C000506820F003000843506070479848406887
:10A4D00000F00C00704701460020954A506820F0BB
:10A4E000F00008435060704701460020904A5068D1
:10A4F00020F4E060084350607047014600208C4A19
:10A50000506820F4605040EAC1005060704729B1A3
:10A51000874A527A0243864B5A7204E0844A527A3E
:10A520008243834B5A7270478449D8310860704720
:10A53000014600207E4A506820F4404008435060A5
:10A54000704700217A4A20321170794A82F820102F
:10A55000012802D004280AD104E00121744A2032E3
:10A56000117005E00521724A2032117000E000BF31
:10A5700000BF70477249086070476D49096A01431E
:10A580006B4A116270476E4944390860704730B5B4
:10A590000021002200240023654D6D6805F00C01A8
:10A5A00021B1042905D0082923D105E0654D0560B6
:10A5B00022E0644D05601FE05D4D6D6805F470128A
:10A5C0005B4D6D6805F48034022505EB92421CB9A1
:10A5D0005D4D554305600BE0554D6D6805F4003544
:10A5E0001DB1594D5543056002E0564D5543056078
:10A5F00002E0544D056000BF00BF4D4D6D6805F091
:10A60000F001090931B9514D6D5C0DB1002301E034
:10A610004E4D6B5C0568DD404560454D6D6805F449
:10A62000E061090A31B9494D6D5C0DB1002301E0CB
:10A63000464D6B5C4568DD4085603D4D6D6805F4B9
:10A640006051C90A31B9414D6D5C0DB1002301E083
:10A650003E4D6B5C4568DD40C560354D6D6805F469
:10A660004041890B3A4D6B5CC568B5FBF3F505615C
:10A6700030BD29B12E4A526902432D4B5A6104E084
:10A680002B4A526982432A4B5A61704729B1284AA2
:10A6900092690243264B9A6104E0254A92698243FB
:10A6A000234B9A61704729B1214AD2690243204B5A
:10A6B000DA6104E01E4AD26982431D4BDA617047B9
:10A6C00029B11B4AD2680243194BDA6004E0184AE8
:10A6D000D2688243164BDA60704729B1144A126976
:10A6E0000243134B1A6104E0114A12698243104B72
:10A6F0001A61704712494039086070470F49C864B1
:10A7000070470B49C87170470948406A40F0807033
:10A7100007494862704701460020054A92680A408E
:10A720000AB1012000E0002070470149887270479B
:10A73000001002400000FFF8FFFFF6FE000042425A
:10A740008004424200127A0000093D0050000020BF
:10A750006000002010B50446BE48844208D10121A3
:10A760008014FFF7ADFF0021A014FFF7A9FF16E04A
:10A77000B948844208D101210014FFF7AEFF00213F
:10A780002014FFF7AAFF0AE0B448844207D1012150
:10A79000C013FFF7A2FF0021E013FFF79EFF10BDDB
:10A7A00010B50022028802F441520B884C882343E2
:10A7B0008C882343CC8823430C8923434C8923432F
:10A7C0008C892343CC8923431A430280838B4FF225
:10A7D000FF74234083830B8A038210BD2DE9F04F61
:10A7E00085B005460C464FF0000902274FF00008DF
:10A7F0004FF0010B0026B246A88B4FF240010840F3
:10A80000A88302202884B5F81C90A068022801D1F2
:10A8100000BF38E0A08810B94FF0010B01E04FF005
:10A82000020B8D48854200D100E000BF6846FFF76B
:10A83000AEFEDDF800A0E088B0F5007F0AD14FEA57
:10A840001A2000EB80004000A168B0FBF1F0401D31
:10A8500086B20BE04FEA4B10BAFBF0F000EB800041
:10A860004000A168B0FBF1F0401D86B20A20B6FBA3
:10A87000F0F606F00108A6EB0800C0F34F074FF60C
:10A88000FF7000EA0828022F01DBFF2F02DD0227FC
:10A890004FF00008E08840EA080038432884A08888
:10A8A000A1890843618808432188084340F4006077
:10A8B00040EA0909A5F81C9005B0BDE8F08F002119
:10A8C000018041808180C180018141818181C1817C
:10A8D0000721018270470021018041808180C18071
:10A8E0000221816000218181704721B1028842F0FC
:10A8F0004002028004E002884FF6BF731A400280D3
:10A90000704721B1828B42F48062828304E0828BA3
:10A910004FF6FF331A408283704730B5002400237E
:10A920000C110125A540ABB21AB185881D43858065
:10A9300002E085889D43858030BD1AB183880B4332
:10A94000838002E083888B438380704781817047D6
:10A950000146888970474FF6FF62914204D0028811
:10A9600042F48072028004E002884FF6FF631A40CE
:10A970000280704721B1828842F00402828004E0A4
:10A9800082884FF6FB731A408280704702884FF22C
:10A99000FF731A40028002880A43028070470188D0
:10A9A00041F480510180704721B1028842F4005285
:10A9B000028004E002884DF6FF731A40028070475F
:10A9C00002460020012901D0108B00E0908A7047D8
:10A9D0000146088A7047B1F5804F04D1028842F4DD
:10A9E0008042028004E002884BF6FF731A40028026
:10A9F00070470246002013890B400BB1012000E094
:10AA000000207047CA4302817047F0B5024600201B
:10AA100000240023002501F00F070126BE40B4B238
:10AA20000B1101269E40B3B2968806EA03051689EB
:10AA3000264016B10DB1012000E00020F0BD10B598
:10AA4000002201F00F040123A3409AB2D3430381F3
:10AA500010BD00000030014000380040003C0040C4
:10AA600010B50446FE48844208D10121C014FFF706
:10AA700027FE0021E014FFF723FEC4E0B4F1804F6D
:10AA800008D101210846FFF728FE00210120FFF729
:10AA900024FEB8E0F348844208D101210220FFF7E8
:10AAA0001CFE00210220FFF718FEACE0EE488442B5
:10AAB00008D101210420FFF710FE00210420FFF738
:10AAC0000CFEA0E0E948844208D101210820FFF7EC
:10AAD00004FE00210820FFF700FE94E0E4488442D1
:10AAE00008D101211020FFF7F8FD00211020FFF709
:10AAF000F4FD88E0DF48844208D101212020FFF7DF
:10AB0000ECFD00212020FFF7E8FD7CE0DA488442DC
:10AB100008D101214014FFF7D3FD00216014FFF795
:10AB2000CFFD70E0D548844209D10121C804FFF768
:10AB3000C7FD00214FF40020FFF7C2FD63E0D048BD
:10AB4000844209D101210805FFF7BAFD00214FF425
:10AB50008010FFF7B5FD56E0CA48844209D10121B3
:10AB60004805FFF7ADFD00214FF40010FFF7A8FDE9
:10AB700049E0C548844208D101214020FFF7ADFDDE
:10AB800000214020FFF7A9FD3DE0C048844208D1E4
:10AB900001218020FFF7A1FD00218020FFF79DFD0E
:10ABA00031E0BB48844208D101218015FFF795FDB3
:10ABB0000021A015FFF791FD25E0B648844209D198
:10ABC00001210804FFF77CFD00214FF48030FFF7DE
:10ABD00077FD18E0B048844209D101214804FFF70D
:10ABE0006FFD00214FF40030FFF76AFD0BE0AB482A
:10ABF000844208D101218804FFF762FD00214FF44F
:10AC00008020FFF75DFD10BD00220288944B984222
:10AC10000ED0994B98420BD0B0F1804F08D0914B99
:10AC2000984205D0904B984202D0904B984204D164
:10AC30004FF68F731A404B881A438D4B984207D0BA
:10AC40008C4B984204D04FF6FF431A40CB881A43EE
:10AC500002808B8883850B880385814B98420BD0BB
:10AC6000854B984208D08B4B984205D08A4B98422E
:10AC700002D08A4B984201D10B7A0386012383824A
:10AC8000704770B5002400220023058C4FF6FE7635
:10AC900035400584028C8388048B4FF68F752C40D9
:10ACA000B51E2C400D882C43751E2A400D892A4361
:10ACB0004D882A436A4DA8420BD06F4DA84208D058
:10ACC000744DA84205D0744DA84202D0734DA842DD
:10ACD00013D14FF6F7752A404D892A434FF6FB757D
:10ACE0002A408D882A434FF6FF652B404FF6FF55CB
:10ACF0002B408D892B43CD892B4383800483CD88C2
:10AD00008586028470BD70B5002400220023058C66
:10AD10004FF6EF7635400584028C8388048B48F625
:10AD2000FF752C404FF6FF452C400D884FF6FF76FF
:10AD300006EA05252C434FF6DF752A400D8906EA01
:10AD400005152A434D8806EA05152A43444DA842B5
:10AD500002D0494DA8421DD14FF67F752A404D893A
:10AD60004FF6FF7606EA05152A434FF6BF752A40CF
:10AD70008D8806EA05152A434FF6FF352B404FF222
:10AD8000FF752B408D8906EA85052B43CD8906EAA0
:10AD900085052B4383800483CD880587028470BD9D
:10ADA00070B5002400220023058C4FF6FF66354065
:10ADB0000584028C8388848B4FF68F752C404FF668
:10ADC000FC752C400D882C434FF6FF552A400D8909
:10ADD0004FF6FF7606EA05252A434D8806EA052543
:10ADE0002A431F4DA84202D0234DA8421DD14FF245
:10ADF000FF752A404D894FF6FF7606EA05252A435E
:10AE00004FF6FF352A408D8806EA05252A434EF67F
:10AE1000FF752B404DF6FF752B408D8906EA051511
:10AE20002B43CD8906EA05152B4383808483CD8887
:10AE30008587028470BD70B5002200230024058C34
:10AE40004EF6FF7635400584038C8488828B48F665
:10AE5000FF752A404FF6FF452A400D8820E000008C
:10AE6000002C01400004004000080040000C00409D
:10AE7000001000400014004000340140004C01402C
:10AE8000005001400054014000180040001C0040E8
:10AE900000200040004001400044014000480140C3
:10AEA0004FF6FF7606EA05252A434DF6FF752B403F
:10AEB0000D8906EA05352B434D8806EA05352B43F7
:10AEC000FA4DA84202D0FA4DA84208D14BF6FF75C0
:10AED0002C408D894FF6FF7606EA85152C43848039
:10AEE0008283CD88A0F84050038470BD828B4FF2DE
:10AEF000FF331A408283828B4FF6FF7303EA0123EC
:10AF00001A4382837047F0B50C4615460022002193
:10AF10000026078C4EF6FF7C07EA0C070784828B1D
:10AF2000018C4FF6FF7707EA043640F6FF473A40B8
:10AF30004FF6FF7707EA05273A434FF6FF7707EA10
:10AF400003373A43D94FB8420ED0D94FB8420BD04D
:10AF5000B0F1804F08D0D74FB84205D0D64FB84295
:10AF600002D0D64FB84206D14DF6FF77394046F4AD
:10AF70008057394305E047F6FF57394044F480577E
:10AF8000394382830184F0BD828B4FF6F3731A40FC
:10AF90008283828B0A4382837047F0B50C46154644
:10AFA000002200210026078C4FF6FF6C07EA0C07F1
:10AFB0000784828B018C4FF6FF7707EA04264FF651
:10AFC0000C773A404FF6FF7707EA03172F433A43CF
:10AFD000B64FB8420ED0B64FB8420BD0B0F1804F4A
:10AFE00008D0B44FB84205D0B34FB84202D0B34FE7
:10AFF000B84206D14FF6FF57394046F480773943BF
:10B0000005E04FF2FF57394044F48077394382839B
:10B010000184F0BD028B4FF2FF331A400283028B92
:10B020004FF6FF7303EA01231A4302837047F0B51A
:10B030000C461546002200210026078C4FF6EF7CB7
:10B0400007EA0C070784028B018C4FF6FF7707EAAB
:10B05000041640F6FF473A404FF6FF7707EA0337FA
:10B060003A434FF6FF7707EA05273A438F4FB84236
:10B070000ED08F4FB8420BD0B0F1804F08D08D4F1B
:10B08000B84205D08C4FB84202D08C4FB84206D19E
:10B090004FF6DF77394046F01007394305E04FF6A9
:10B0A0005F77394044F01007394302830184F0BDD3
:10B0B000028B4FF6F3731A400283028B0A4302831A
:10B0C0007047F0B50C46154600220021068C4FF65D
:10B0D000FE773E400684028B018C4FF60C763240A0
:10B0E0007E1C06EA03162E433243704EB0420ED049
:10B0F0006F4EB0420BD0B0F1804F08D06D4EB042D1
:10B1000005D06D4EB04202D06C4EB04206D14FF623
:10B11000FD76314044F00106314305E04FF6F57607
:10B12000314044F00106314302830184F0BD70B523
:10B1300005460C465D4885420ED05D4885420BD0E1
:10B14000B5F1804F08D05B48854205D05A4885420A
:10B1500002D05A48854200D100E000BF208850B993
:10B160002389A28861882846FFF7ABFFE18828463B
:10B17000FFF79EFF25E0208804280AD12389A288B2
:10B1800061882846FFF753FFE1882846FFF742FF12
:10B1900017E0208808280AD12389A28861882846D8
:10B1A000FFF7FBFEE1882846FFF7EEFE09E0238962
:10B1B000A28861882846FFF7A6FEE1882846FFF7A7
:10B1C00095FE70BD2DE9F04105460C46002601278D
:10B1D000608808B9022600E00026A088012801D175
:10B1E000022700E001272088A0B92389A28861886E
:10B1F0002846FFF766FFE1882846FFF759FF2389B5
:10B200003A4631462846FFF712FFE1882846FFF705
:10B2100001FF13E02389A28861882846FFF707FF12
:10B22000E1882846FFF7F6FE23893A46314628464C
:10B23000FFF747FFE1882846FFF73AFFBDE8F081B6
:10B240000A884B881A438B881A43CB881A430B8988
:10B250001A434B891A438B891A43A0F8442070473C
:10B260004FF6FF71818000210180C1804180017211
:10B2700070470021018041808180C180018141812E
:10B280008181C1817047002101804180012181803D
:10B290000021C180018170470021018041808180AF
:10B2A000C18001814181818170470000002C0140F3
:10B2B000003401400004004000080040000C004041
:10B2C00021B1028842F00102028004E002884FF6B8
:10B2D000FE731A400280704731B1B0F8442042F446
:10B2E0000042A0F8442005E0B0F84420C2F30E026A
:10B2F000A0F8442070471AB183890B43838102E090
:10B3000083898B43838170478182704741EA0203BE
:10B31000A0F8483070471AB183890B43838102E05B
:10B3200083898B438381704701894FF6F8721140FE
:10B33000018170470A46002101894FF68F73194039
:10B3400011430181704730B504460D462946204619
:10B35000FFF7F0FF208940F00700208130BD2DE984
:10B36000F04104460D4616461F46602D06D13B4669
:10B37000012231462046FFF75AFE05E03B460122F6
:10B3800031462046FFF79DFE29462046FFF7D2FFB3
:10B39000208940F007002081BDE8F08130B50C46DF
:10B3A00000210189C9B24FF6FF7505EA032515434F
:10B3B00025432943018130BD2DE9F04105460E4664
:10B3C00017469846002443463A4631462846FFF73A
:10B3D000E5FF2C894FF6F870044044F007044FF65F
:10B3E0008F70044044F070042C81BDE8F081F0B50A
:10B3F00004460D4616461F463B4632462946204621
:10B40000FFF7CCFF208940F480402081F0BD01850A
:10B41000828270470A46002101884FF68F731940D7
:10B42000114301807047F0B50C4615461E460021B9
:10B43000002200230189028B038C4FF6F8773940F4
:10B4400021434FF6FC473A4040F201173A434FF68A
:10B45000DD773B404FF6FF7707EA06172F433B4364
:10B46000018102830384F0BD0A460021018B4FF65F
:10B470008F7319401143018370470A460021018BE5
:10B4800048F6FF7319404FF6FF7303EA022319438E
:10B49000018370470A460021818B4FF68F73194054
:10B4A0001143818370470A460021818B48F6FF7360
:10B4B00019404FF6FF7303EA022319438183704753
:10B4C00021B1028842F08002028004E002884FF637
:10B4D0007F731A400280704721B1828842F00402D3
:10B4E000828004E082884FF6FB731A4082807047A6
:10B4F00021B1828842F00802828004E082884FF6FF
:10B50000F7731A408280704721B1828842F00102AD
:10B51000828004E082884FF6FE731A408280704772
:10B520000A460021018B4FF6F7731940114301833E
:10B5300070470A460021018B4FF2FF7319404FF606
:10B54000FF7303EA02231943018370470A4600216F
:10B55000818B4FF6F77319401143818370470A4678
:10B560000021818B4FF2FF7319404FF6FF7303EAFE
:10B5700002231943818370470A460021018B4FF64D
:10B58000FB7319401143018370470A460021018B68
:10B590004FF6FF3319404FF6FF7303EA02231943B6
:10B5A000018370470A460021818B4FF6FB731940D7
:10B5B0001143818370470A460021818B4FF6FF3388
:10B5C00019404FF6FF7303EA022319438183704742
:10B5D0000A460021018B4FF67F7319401143018306
:10B5E00070470A460021018BC1F30E014FF6FF732D
:10B5F00003EA02231943018370470A460021818B25
:10B600004FF67F7319401143818370470A4600212A
:10B61000818BC1F30E014FF6FF7303EA0223194336
:10B62000818370470A460021018C4FF6FD73194053
:10B630001143018470470A460021018C4FF6F773CD
:10B6400019401143018470470A460021018C4FF6CE
:10B65000DF7319404FF6FF7303EA021319430184A5
:10B6600070470A460021018C4FF67F7319404FF650
:10B67000FF7303EA02131943018470470A4600214D
:10B68000018C4FF6FF5319404FF6FF7303EA022374
:10B690001943018470470A460021018C4FF2FF7361
:10B6A00019404FF6FF7303EA0223194301847047E0
:10B6B0000A460021018C4DF6FF7319404FF6FF73C7
:10B6C00003EA023319430184704730B50023012493
:10B6D0008C40A3B2048C9C430484048C02FA01F5D0
:10B6E000ADB22C43048430BD30B5002304248C401B
:10B6F000A3B2048C9C430484048C02FA01F5ADB21D
:10B700002C43048430BD70B5034600200024184645
:10B71000183001258D40ACB21D8CA5431D8409B1A4
:10B72000082909D100EB6100056825F07005056066
:10B730000568154305600EE00D1FC5F34E0528444E
:10B74000056825F4E045056005684FF6FF7606EAD2
:10B7500002263543056070BD21B1028842F0020225
:10B76000028004E002884FF6FD731A4002807047A1
:10B7700021B1028842F00402028004E002884FF600
:10B78000FB731A400280704721B1828842F0800228
:10B79000828004E082884FF67F731A40828070476F
:10B7A00002884FF6F7731A40028002880A4302802B
:10B7B000704782884FF68F731A40828082880A43CE
:10B7C0008280704702894FF6F8731A40028102891D
:10B7D0000A430281704702894FF67F731A40028143
:10B7E00002890A43028170478184704781857047CE
:10B7F000818670470187704781877047A0F84010A5
:10B80000704702884FF6FF431A40028002880A43BD
:10B81000028070470146888E70470146088F704746
:10B820000146888F70470146B1F8400070470146D5
:10B83000888C70470146088D704702460020138AA5
:10B840000B400BB1012000E000207047CA43028288
:10B85000704730B50246002000230024158A05EA0F
:10B860000103958905EA010413B10CB1012000E040
:10B87000002030BDCA4302827047000010B5044664
:10B88000FB48844209D101218803FEF719FF0021FA
:10B890004FF48040FEF714FF32E0F648844209D1AD
:10B8A00001214804FEF719FF00214FF40030FEF794
:10B8B00014FF25E0F048844209D101218804FEF7F5
:10B8C0000CFF00214FF48020FEF707FF18E0EB4843
:10B8D000844209D10121C804FEF7FFFE00214FF484
:10B8E0000020FEF7FAFE0BE0E548844208D1012172
:10B8F0000805FEF7F2FE00214FF48010FEF7EDFE82
:10B9000010BD2DE9F04786B005460E460024A2463C
:10B9100000BFA1460027B08900B100BF2F462C8A86
:10B920004CF6FF700440F08804432C82AC894EF63C
:10B93000F3100440B08831890843718908430443F7
:10B94000AC81AC8A4FF6FF400440B0890443AC821E
:10B9500001A8FEF71CFEC648874202D1DDF810A000
:10B9600001E0DDF80CA0A88900F4004040B10AEB2A
:10B97000CA0000EB0A1031684900B0FBF1F807E09B
:10B980000AEBCA0000EB0A1031688900B0FBF1F83D
:10B990006420B8FBF0F004012009642101FB108948
:10B9A000A88900F4004040B1322000EBC900B0FB90
:10B9B000F1F000F00700044308E0322000EB09102A
:10B9C0006421B0FBF1F000F00F0004432C8106B0BD
:10B9D000BDE8F0874FF41651016000218180C180DD
:10B9E00001810C21418100218181704710B50246FF
:10B9F0000020108A4FF2FF0318400B884C88234325
:10BA00008C882343CC8823431843108210BD002127
:10BA1000018041808180C180704721B1828942F4D8
:10BA20000052828104E082894DF6FF731A408281C0
:10BA30007047F0B50346002400260025002040F69C
:10BA40006A17B94200D100BF1846C1F3421401F091
:10BA50001F06012707FA06F5012C01D10C3004E07E
:10BA6000022C01D1103000E014301AB107682F43C6
:10BA7000076002E00768AF430760F0BD1AB1838A30
:10BA80000B43838202E0838A8B4383827047028A5E
:10BA90004FF6F0731A400282028A0A43028270470C
:10BAA00082894FF2FF731A40828182890A43828120
:10BAB000704721B1828942F00202828104E08289CA
:10BAC0004FF6FD731A4082817047028A4FF6DF738A
:10BAD0001A400282028A0A430282704721B1028A16
:10BAE00042F48042028204E0028A4BF6FF731A405D
:10BAF00002827047C1F3080282807047014688883D
:10BB0000C0F308007047818941F0010181817047CD
:10BB1000028BD2B20283028B42EA01220283704777
:10BB2000028B02F47F420283028B0A430283704736
:10BB300021B1828A42F02002828204E0828A4FF69A
:10BB4000DF731A408282704721B1828A42F010026C
:10BB5000828204E0828A4FF6EF731A408282704735
:10BB600021B1828A42F00802828204E0828A4FF682
:10BB7000F7731A408282704721B1828942F40042F1
:10BB8000828103E08289C2F30E028281704721B173
:10BB9000828A42F40062828204E0828A4FF2FF735A
:10BBA0001A4082827047828A4FF6FB731A40828263
:10BBB000828A0A438282704721B1828A42F002025D
:10BBC000828204E0828A4FF6FD731A4082827047B7
:10BBD00002460020B1F5007F00D100BF13880B4062
:10BBE0000BB1012000E00020704701F40072B2F5B3
:10BBF000007F00D100BFCA430280704770B5024683
:10BC0000002400230025002040F66A16B14200D12E
:10BC100000BFC1F3421501F01F03012606FA03F32A
:10BC2000012D02D19689334006E0022D02D1168AF9
:10BC3000334001E0968A33400C12012606FA04F4E0
:10BC40001688344013B10CB1012000E0002070BD13
:10BC500010B50022002340F66A14A14200D100BFB3
:10BC60000A1201249440A3B2DC43048010BD0000FA
:10BC7000003801400044004000480040004C0040B3
:10BC8000005000400948804709480047FEE7FEE7AA
:10BC9000FEE7FEE7FEE7FEE7FEE7FEE7FEE7FEE77C
:10BCA00004480549054A064B70470000A79800085C
:10BCB00031810008A0D60020B0DC0020B0D80020E0
:10BCC000B0D8002008B501214020FEF7DFFC49F67E
:10BCD000FF70ADF8000010208DF8030003208DF8F0
:10BCE00002006946FE48FEF7E3F9BDF80010FC4883
:10BCF000FEF78DFA01210420FEF7C8FC4FF44050F6
:10BD0000ADF8000010208DF8030003208DF802002C
:10BD10006946F448FEF7CCF9BDF80010F148FEF78B
:10BD200076FA4FF6FF70F0490880F049088008BDA8
:10BD3000EF490988491CEE4A1180114609881929E2
:10BD40000CDB00211180EB49097819B90121E94A7E
:10BD5000117002E00021E74A117000BFE64909783E
:10BD600000297DD1E54A1170CCE0E4490978C1EBA6
:10BD7000C10202EB0111E24A02EB410191F82810E5
:10BD800000296ED1DD490978C1EBC10202EB011136
:10BD9000DB4A02EB410191F82D100C295AD0D7490A
:10BDA0000978C1EBC10202EB0111D54A02EB410156
:10BDB00091F82D100D294DD0D0490978C1EBC10261
:10BDC00002EB0111CE4A02EB410191F82D100E2930
:10BDD00040D0CA490978C1EBC10202EB0111C84A3F
:10BDE00002EB410191F82D100F2933D0C349097896
:10BDF000C1EBC10202EB0111C14A02EB410191F812
:10BE00002D10102926D0BD490978C1EBC10202EBE3
:10BE10000111BB4A02EB410191F82D10112919D0F3
:10BE2000B6490978C1EBC10202EB0111B44A02EB39
:10BE3000410191F82D1012290CD0B0490978C1EBBD
:10BE4000C10202EB0111AE4A02EB410191F82D1043
:10BE5000132921D1AB49A94A127831F8121001E017
:10BE60006AE119E0B1F5006F0ADAA4490978891D81
:10BE700001228A409D49098891439C4A11803CE0F7
:10BE80009E490978891D012202FA01F1974A128818
:10BE90001143964A118030E09A49984A127831F855
:10BEA0001210B1F57D6F1DDA9649944A127831F877
:10BEB0001210962916DD91490978C1EBC10202EBF7
:10BEC00001118F4A02EB410191F82D1051B18B49BC
:10BED0000978891D01228A40844909889143834A4F
:10BEE00011800AE085490978891D012202FA01F1D1
:10BEF0007E4A128811437D4A118080490978491C85
:10BF00007E4A11707D4909780529FFF62EAF05217B
:10BF10007A4A11700BE1794909780D297EDA77495F
:10BF20000978C1EBC10202EB0111754A02EB410134
:10BF300091F82810002972D170490978C1EBC1022B
:10BF400002EB01116E4A02EB410191F82D100C2910
:10BF50005AD06A490978C1EBC10202EB0111684A63
:10BF600002EB410191F82D100D294DD0634909785C
:10BF7000C1EBC10202EB0111614A02EB410191F8F0
:10BF80002D100E2940D05D490978C1EBC10202EBAA
:10BF900001115B4A02EB410191F82D100F2933D0BA
:10BFA00056490978C1EBC10202EB0111544A02EB78
:10BFB000410191F82D10102926D050490978C1EB84
:10BFC000C10202EB01114E4A02EB410191F82D1022
:10BFD000112919D049490978C1EBC10202EB0111BD
:10BFE000474A02EB410191F82D1012290CD0434928
:10BFF0000978C1EBC10202EB0111414A02EB410198
:10C0000091F82D10132921D13E493C4A127831F87C
:10C010001210B1F5006F0DDA384901E048E015E083
:10C020000978C91E01228A402F49098891432E4A66
:10C03000118077E031490978C91E012202FA01F125
:10C04000294A12881143284A11806BE02D492B4A56
:10C05000127831F81210B1F57D6F1DDA2949274A9F
:10C06000127831F81210962916DD24490978C1EBAF
:10C07000C10202EB0111224A02EB410191F82D109D
:10C0800051B11E490978C91E01228A401649098802
:10C090009143154A118045E018490978C91E0122CB
:10C0A00002FA01F1104A128811430F4A118039E057
:10C0B0001449124A127831F81210B1F57D6F26DA60
:10C0C00010490E4A127831F8121096291FDD0B49DB
:10C0D00009780D3901228A4004490988914313E007
:10C0E00000180140000801406400002066000020A4
:10C0F0007200002068000020090000207400002069
:10C10000E875002066150020F74A11800AE0F7491B
:10C1100009780D39012202FA01F1F34A128811431C
:10C12000F14A1180F1490978491CF04A1170EF4930
:10C1300009781329FFF6EFAEED49097801297DD181
:10C140000021EA4A1170CCE0E8490978C1EBC1024C
:10C1500002EB0111E74A02EB410191F82810E9BB1B
:10C16000E2490978C1EBC10202EB0111E14A02EB9D
:10C17000410191F82D100C295CD0DC490978C1EB04
:10C18000C10202EB0111DB4A02EB410191F82D10D3
:10C190000D294FD0D5490978C1EBC10202EB01113D
:10C1A000D44A02EB410191F82D100E2942D0CF491B
:10C1B0000978C1EBC10202EB0111CE4A02EB410149
:10C1C00091F82D100F2935D0C8490978C1EBC1026B
:10C1D00002EB0111C74A02EB410100E04BE091F88C
:10C1E0002D10102926D0C1490978C1EBC10202EBFC
:10C1F0000111C04A02EB410191F82D10112919D00B
:10C20000BA490978C1EBC10202EB0111B94A02EB4C
:10C21000410191F82D1012290CD0B4490978C1EBD5
:10C22000C10202EB0111B34A02EB410191F82D105A
:10C23000132920D1B049AD4A127800E099E031F8D5
:10C240001210B1F5006F0ADAA8490978891C012299
:10C250008A40AA4909889143A84A11803CE0A34931
:10C260000978891C012202FA01F1A44A12881143BB
:10C27000A24A118030E0A0499C4A127831F812108D
:10C28000B1F57D6F1DDA9C49984A127831F8121089
:10C29000642916DD95490978C1EBC10202EB011151
:10C2A000944A02EB410191F82D1051B18F49097860
:10C2B000891C01228A409149098891438F4A118043
:10C2C0000AE08A490978891C012202FA01F18B4AA5
:10C2D00012881143894A118084490978491C834A8C
:10C2E0001170824909780829FFF62EAF0A217F4A8A
:10C2F000117029E080497D4A127831F81210962990
:10C3000012DD7D49794A127831F81210B1F57D6F4E
:10C310000ADA76490978491D01228A40724909885A
:10C320009143714A11800AE070490978491D012240
:10C3300002FA01F16C4A128811436B4A11806B4971
:10C340000978491C694A1170684909781029D1DBBC
:10C350006B490978002906DD6349098821F0080145
:10C36000614A118005E06049098841F008015E4A90
:10C37000118000215D4A117093E06249B1F84010CC
:10C380005A4A12785200114101F0030057490978C6
:10C39000032943DA48B955490A7801219140574A9F
:10C3A00012881143554A118076E0022809D14F497D
:10C3B0000A7801219140514A12888A434F490A80E4
:10C3C0006AE0012868D149490978C1EB011101EB04
:10C3D00041014D4A1144D1F81E10002909DD43499D
:10C3E0000A7801219140454A12888A4343490A80CC
:10C3F00052E03E490978C1EB011101EB4101424A8B
:10C400001144D1F81E1011BB38490A78012191401E
:10C410003A4A12881143394A11803DE058B93349EC
:10C420000978C91E012202FA01F1344A1288114327
:10C43000324A118030E002280AD12C490978C91EFD
:10C4400001228A402D49098891432C4A118023E01A
:10C45000012821D125490978C1EB011101EB4101E6
:10C46000294A1144D1F81E1001290ADD1F49097813
:10C47000C91E01228A402149098891431F4A11801F
:10C480000AE01A490978C91E012202FA01F11B4A81
:10C4900012881143194A118014490978491C134A1A
:10C4A0001170124909780229FFF667AF1749097818
:10C4B000002904DD15490978491E144A11701449F0
:10C4C0000978002904DD12490978491E104A1170C3
:10C4D0000E49097800291DDD0849098821F4006109
:10C4E000064A11801CE00000660000207400002055
:10C4F00009000020E8750020661500206400002077
:10C5000070000020906E0020007500206E0000205A
:10C510006F0000207549098841F40061734A118059
:10C5200073490978002906DD7049098821F4806182
:10C530006E4A118005E06D49098841F480616B4ABB
:10C5400011806C490978002904DD6A490978491E7F
:10C55000684A117068490978002904DD664909783C
:10C56000491E654A117063490978002903DD0021DD
:10C57000624A117002E00121604A11705E49097837
:10C58000002906DD5949098821F48051574A118054
:10C5900005E05649098841F48051544A11805849B0
:10C5A0000978002904DD56490978491E544A11705A
:10C5B00054490978002904DD52490978491E514A35
:10C5C00011704F490978002906DD4F49098821F487
:10C5D00000614D4A118005E04B49098841F4006132
:10C5E000494A118047490978002906DD46490988EA
:10C5F00021F48051444A118005E04349098841F4FF
:10C600008051414A1180704710B54048007808B900
:10C61000012000E000203D4908700846007888B3FA
:10C620004FF480513A48FDF7F2FD4FF4004139488C
:10C63000FDF7EBFD3148007828B94FF4005134483C
:10C64000FDF7E5FD04E04FF400513148FDF7DDFD55
:10C65000002414E00120A04024490988084030B19A
:10C6600001202D4A02EB8401C1F8800105E0002081
:10C67000294A02EB8401C1F88001601CC4B20D2C70
:10C68000E8DB31E0FFE74FF480512148FDF7BDFDC5
:10C690004FF400411F48FDF7BAFD2048007828B943
:10C6A0004FF400511A48FDF7B2FD04E04FF4005179
:10C6B0001748FDF7AAFD002414E00120A04012490C
:10C6C0000988084030B10120134A02EB8401C1F807
:10C6D000800105E00020104A02EB8401C1F88001CE
:10C6E000601CC4B20D2CE8DB10BD0000640000200B
:10C6F0006F0000206B0000206C0000206D00002007
:10C70000690000206A0000206600002075000020FB
:10C71000000801400018014000002342680000208A
:10C7200008B501210820FDF7B1FF0320ADF8000096
:10C7300010208DF8030003208DF802006946974809
:10C74000FDF7B6FC03219548FDF75FFD01211020A0
:10C75000FDF79CFF2020ADF8000010208DF80300AD
:10C7600003208DF8020069468D48FDF7A1FC2021C9
:10C770008B48FDF74AFD08BD10B58848006820F0D9
:10C780000F00864908600846006840F00300086012
:10C790000120844908608449C1F88401042002F022
:10C7A00039FE00207F490860042002F033FE00209B
:10C7B0007D49C1F8840110BD10B57848006820F0AB
:10C7C0000F00764908600846006840F003000860E2
:10C7D00000207449091D08607349C1F880010420D4
:10C7E00002F018FE01206F49091D08606E49C1F86A
:10C7F0008001042002F00EFE10BD10B50024674831
:10C80000006820F00F00654908600846006840F0A5
:10C810000800086001206349086002F0FBFD012068
:10C820006149C1F8840102F0F5FD07E0601CC4B263
:10C83000FA2C03DDFFF7C0FF012010BD59488038F6
:10C8400000680028F2D15749091D086000BFF4E7CD
:10C8500010B500205349091D08605048006820F0B9
:10C860000F004E4908600846006840F00300086069
:10C8700000204D49C1F88001022002F0CBFD0120CB
:10C880004849091D0860022002F0C4FD0020464905
:10C89000C1F8840110BD10B500204249091D08608F
:10C8A0003E48006820F00F003C49086008460068D8
:10C8B00040F00300086001203B49C1F880010220DC
:10C8C00002F0A8FD01203749091D0860022002F08E
:10C8D000A1FD00203449C1F8840110BD70B50446A3
:10C8E0002E48006820F00F002C49086008460068B8
:10C8F00040F00300086000202A49091D0860002557
:10C9000017E0E009274908606006040E022002F0E3
:10C9100081FD01202449C1F88401022002F07AFD42
:10C9200000202049091D0860022002F073FD681CE8
:10C93000C5B2082DE5DB70BD70B50546002417486B
:10C94000006820F00F00154908600846006840F0B4
:10C9500008000860002617E000201249091D086041
:10C96000022002F057FD01200F49C1F88401600642
:10C97000040E0C488038006808B1601CC4B2012065
:10C9800002F048FD701CC6B2082EE5DB15B9FFF7B2
:10C9900082FF01E0FFF75CFF204670BD000C014004
:10C9A00000100140808121420080214210B5FFF734
:10C9B000B7FE10BD70B504460026FFF7DDFE254624
:10C9C000E11704EB11610912A02202EB4101C8B288
:10C9D000FFF784FFFFF711FFE11704EB1161091264
:10C9E000A4EB0121C8B2FFF779FFFFF706FFFFF7BD
:10C9F000C3FEA120FFF772FFFFF7FFFE0020FFF745
:10CA00009BFF0646FFF7D8FE304670BD70B5044662
:10CA10000E46002049490860012002F026FDFFF77C
:10CA2000ABFE2546E11704EB11610912A02202EBCF
:10CA30004101C8B2FFF752FFFFF7DFFEE11704EB39
:10CA400011610912A4EB0121C8B2FFF747FFFFF7FC
:10CA5000D4FE3046FFF742FFFFF7CFFEFFF7ACFEF4
:10CA600001203749C1F89401022002F0FEFC70BD9C
:10CA70002DE9F04105460E461746002409E0E20084
:10CA800026FA02F2D1B22A1990B2FFF7BFFF601C5A
:10CA9000C4B2BC42F3DBBDE8F0812DE9F0410746AA
:10CAA0000C460026002509E036023919491B491EAB
:10CAB00088B2FFF77FFF0644681CC5B2A542F3DBCE
:10CAC0003046BDE8F08110B5FF20FFF773FF044644
:10CAD000552C01D1002010BD5521FF20FFF796FFF6
:10CAE000FF20FFF767FF0446552C01D10020F2E735
:10CAF0000120F0E770B506460C46154608E03046C2
:10CB0000721C96B2FFF756FF04F8010B681E85B23F
:10CB1000002DF4D170BD70B505460C46164606E0F2
:10CB200021782846FFF772FF681C85B2641C30002C
:10CB3000A6F101018EB2F3D170BD00009401224232
:10CB40000000224270B50546002406E0601C84B255
:10CB5000B4F5803F01DB002070BD02217F48FDF766
:10CB600048FF0028F2D029467C48FDF7EFFE06E09A
:10CB7000601C84B2B4F5803F01DB0020ECE70121AA
:10CB80007648FDF736FF0028F2D07448FDF7E0FE46
:10CB9000C0B2E1E710B50446704800884FF6C7718F
:10CBA00008406E490880084600882043088001211B
:10CBB0006A48FDF79AFE10BD00B587B0012141F229
:10CBC0000900FDF763FD01210846FDF742FB38200F
:10CBD000ADF8180018208DF81B0003208DF81A00FE
:10CBE00006A95F48FDF764FABDF818105C48FDF728
:10CBF0000CFB01A8FDF763FE0020ADF804004FF424
:10CC00008270ADF806000020ADF80800ADF80A000B
:10CC1000ADF80C004FF40070ADF80E003820ADF800
:10CC200010000020ADF812000720ADF8140001A993
:10CC30004A48FDF7B5FD01214848FDF756FE322070
:10CC400002F013FC0820FFF7A5FFFF20FFF77AFF93
:10CC500007B000BD10B50446424800884FF6C771C2
:10CC60000840404908800846008820430880012188
:10CC70003C48FDF73AFE10BD70B50546002406E0BD
:10CC8000601C84B2B4F5803F01DB002070BD02213E
:10CC90003448FDF7AEFE0028F2D029463148FDF7B2
:10CCA00055FE06E0601C84B2B4F5803F01DB002035
:10CCB000ECE701212B48FDF79CFE0028F2D0294823
:10CCC000FDF746FEC0B2E1E700B587B001210820BC
:10CCD000FDF7DCFC01218803FDF7E5FC4FF4604023
:10CCE000ADF8180018208DF81B0003208DF81A00ED
:10CCF00006A91B48FDF7DCF94FF460411848FDF721
:10CD000084FA0020ADF804004FF48270ADF80600FC
:10CD10000020ADF808000220ADF80A000120ADF8AF
:10CD20000C004002ADF80E001820ADF810000020F5
:10CD3000ADF812000720ADF8140001A90948FDF76D
:10CD40002FFD01210748FDF7D0FDFF20FFF794FFDD
:10CD50003820FFF77FFF07B000BD00000030014022
:10CD6000000C014000380040B448B5494860B5485F
:10CD700048607047B248006940F08000B0490861DF
:10CD80007047AF48C16801F0010008B10120704749
:10CD900001F0040008B10220F9E701F0100008B129
:10CDA0000320F4E70020F2E770B5044600BFFFF768
:10CDB000E8FF0546012D00D006E0012002F02AFB25
:10CDC000601E84B2002CF2D100BF04B9FF252846B2
:10CDD00070BD70B50546002445F6FF70FFF7E4FF0F
:10CDE0000446C4B99648006940F0020094490861BD
:10CDF00008464561006940F04000086145F6FF7053
:10CE0000FFF7D2FF0446012C05D08D48006920F0C1
:10CE100002008B490861204670BD70B505460E467C
:10CE2000FF20FFF7C1FF044694B98548006940F030
:10CE30000100834908612E80FF20FFF7B5FF0446FB
:10CE4000012C05D07E48006920F001007C49086172
:10CE5000204670BD014608887047014601F0010078
:10CE600010B90888C0B2704731F8010C000AFAE71F
:10CE70002DE9F04105460E461746002407E036F836
:10CE800014102846FFF7C9FFAD1C601C84B2BC42D9
:10CE9000F5DBBDE8F08130B503460C4615460022AF
:10CEA00007E01846FFF7D6FF24F812009B1C501C21
:10CEB00082B2AA42F5DB30BD2DE9F05F80468A469A
:10CEC0001746B8F1006F02D35F48804501D3BDE833
:10CED000F09FFFF749FFA8F1006B4FEADB25CBF38A
:10CEE0004909C9F58064A74200DC3C464EE04FF09A
:10CEF000006101EBC5204A145449FFF7CCFF00261E
:10CF00000BE009EB0600514931F810004FF6FF71B4
:10CF1000884200D003E0701C86B2A642F1DB00BF5D
:10CF2000A6421BDA4FF0006101EBC520FFF751FF6D
:10CF3000002608E03AF8160006EB0901434A22F8F9
:10CF40001100701C86B2A642F4DB4FF0006101EBC9
:10CF5000C5204A143D49FFF78BFF04E022465146A5
:10CF60004046FFF785FFA74200D110E06D1C4FF04F
:10CF700000090AEB440A08EB4408381B87B2B7F5EE
:10CF8000806F02DD4FF4806400E03C46AFE700BFF5
:10CF9000FFF7F0FE00BF9AE730B503460C46154692
:10CFA000002206E01846FFF758FFA0545B1C501CF7
:10CFB00082B2AA42F6DB30BD13B50446012201A9B4
:10CFC0002046FFF779FF1CBD2DE9F05F0446894636
:10CFD000924600252746C846B4F1006F02D31A488E
:10CFE000844201D3BDE8F09F00261DE098F80100BF
:10CFF0004FEA002B98F8000058441FFA80FB08F114
:10D0000002082846691C8DB2114921F810B0B5F507
:10D01000806F07D100254FF480623846FFF728FF64
:10D0200007F50067B01C86B25645DFD325B12A4606
:10D0300007493846FFF71CFF00BFD3E723016745C8
:10D0400000200240AB89EFCD00000408380D00201D
:10D050003805002010B501214B48FEF7EEFB0121F9
:10D060004948FEF7F3FB10BD7FB505460C4601218C
:10D070000220FDF718FBADF80850ADF80440002081
:10D08000ADF80A00ADF8060001A93F48FDF7BCFD68
:10D090001D208DF8000000208DF8010002208DF881
:10D0A000020001208DF803006846FCF782FC012293
:10D0B00011463548FEF71FF901213348FEF700F904
:10D0C0007FBD10B501213148FEF7B7FB012804D11F
:10D0D0002F480068401C2E4908602E480088B0F593
:10D0E0007A7F05DA2B480088401C2A49088002E034
:10D0F00000202849088028480078401C26490870EC
:10D10000084600780A2804D1FFF77EFA0020224959
:10D11000087022480088002804DD20480088401E4E
:10D120001E49088001211948FEF790FB10BD7FB50C
:10D1300005460C4601211020FDF7B5FAADF8085060
:10D14000ADF804400020ADF80A00ADF8060001A9D2
:10D150000E48FDF759FD36208DF8000001208DF8AE
:10D16000010003208DF8020001208DF803006846BD
:10D17000FCF71FFC012211460448FEF7BCF8012110
:10D180000248FEF79DF87FBD0004004000100040FB
:10D190007C00002050020020800000207800002049
:10D1A00008B501210820FDF771FAC020ADF8000094
:10D1B00010208DF8030003208DF802006946FC481A
:10D1C000FCF776FF4FF48070ADF8000048208DF832
:10D1D000030003208DF802006946F548FCF768FF5C
:10D1E00040F2CF216420FFF7A2FF8021F048FDF735
:10D1F0000EF80A2002F039F98021ED48FDF705F814
:10D200000A2002F032F98021E948FDF700F80A20EF
:10D2100002F02BF98021E648FCF7F7FF0A2002F024
:10D2200024F98021E248FCF7F2FF0A2002F01DF900
:10D230008021DF48FCF7E9FF0A2002F016F980217F
:10D24000DB48FCF7E4FF0A2002F00FF98021D84800
:10D25000FCF7DBFF0A2002F008F908BD70B50546AF
:10D260000C4600264021D248FCF7D1FF04F01F00F5
:10D2700040EA05063046FFF765FCFF20FFF762FC39
:10D28000064604F0800018B1FF20FFF75BFC06465D
:10D290004021C748FCF7B9FF304670BD2DE9F04189
:10D2A00004460D46164600274021C148FCF7AFFF53
:10D2B00005F01F0040EA04073846FFF743FC3046FC
:10D2C000FFF740FC4021BA48FCF79FFFBDE8F08122
:10D2D00070B505460C464021B548FCF798FF3A204A
:10D2E000FFF730FC05E06D1E0020FFF72BFC2070DF
:10D2F000641C002DF7D1002020704021AC48FCF7C1
:10D3000084FF70BD70B504460D464021A848FCF767
:10D310007EFF7A20FFF716FC04E0641E2878FFF7F2
:10D3200011FC6D1C002CF8D14021A148FCF76DFFC9
:10D3300070BD10B5044604F060009E49097888422B
:10D340000ED003221F21A020FFF7A8FFC4F3411233
:10D350001F218020FFF7A2FF04F0600095490870AC
:10D3600010BD10B504462046FFF7E3FF214600201C
:10D37000FFF774FF10BD70B504460D462046FFF759
:10D38000D8FF2A4621464020FFF788FF70BD70B5C0
:10D3900005460C4600262946D420FFF7ECFFE1B2F3
:10D3A000D620FFF7E8FFC4F30721D720FFF7E3FFFC
:10D3B00001E0701C86B2EA20FFF7D3FF00F0010005
:10D3C00018B140F6FF708642F3DB70BD70B50446BD
:10D3D0000025FFF7E5FE09E0FF2200211046FFF7D8
:10D3E0005DFF681C85B20A2002F03FF81D20FFF7A0
:10D3F000B8FF00F0010010B9B5F5FA7FECDBB5F528
:10D40000FA7F04DB6CA013F005FF012070BD002043
:10D410007149086000210820FFF7ADFF00210920B5
:10D42000FFF7A9FF00210C20FFF7A5FF00210D2029
:10D43000FFF7A1FF10210A20FFF79DFF1A210B2003
:10D44000FFF799FF11210420FFF795FF1A2105200E
:10D45000FFF791FFFF210620FFF78DFF1F21072017
:10D46000FFF789FFA1213820FFF785FF3F21282002
:10D47000FFF781FF30212920FFF77DFFF9213020C0
:10D48000FFF779FFF7213120FFF775FF0D21C0204D
:10D49000FFF771FF0021C120FFF76DFF3322C2218A
:10D4A0008020FFF7FBFE1221C620FFF764FF0C214E
:10D4B000C720FFF760FF1521C420FFF75CFFEE21B6
:10D4C000CA20FFF758FF0521CB20FFF754FF217832
:10D4D000E420FFF750FF6178E520FFF74CFFA178CB
:10D4E000E220FFF748FFE178E320FFF744FF2179CE
:10D4F000E020FFF740FF6179E120FFF73CFF4FF4A8
:10D5000080710020FFF743FF4FF480711020FFF778
:10D510003EFF1F20FFF70DFFC0221B218020FFF7D9
:10D52000BDFE04221F218020FFF7B8FEE420FFF794
:10D5300018FF2178884201D1002067E7012065E7C4
:10D5400010B57220FFF70DFF10BD70B504460D46F3
:10D5500011210220FFF70FFF1A210320FFF70BFF15
:10D5600011202044C1B20620FFF705FF41F611202B
:10D570002044C0F307210720FFF7FDFE00221146DB
:10D580007A20FFF78BFE29462046FFF7BBFE0822D4
:10D590001F218020FFF782FE1C20FFF7E2FE00F033
:10D5A000020020B108221F21A020FFF777FE70BDE6
:10D5B000000C014084000020454E4332384A36308A
:10D5C00020696E6974696C697365206661696C6550
:10D5D000642E2E2E0A000000880000202DE9F04164
:10D5E00005460F463920FFF7BCFE10B90020BDE804
:10D5F000F081294801780020FFF7BDFE2648008809
:10D60000C0F307210120FFF7B6FE00213A20FFF703
:10D6100025FE2149086000213A20FFF71FFE1E4920
:10D62000096841EA00201C49086000213A20FFF700
:10D6300015FE044600213A20FFF710FE44EA0024BC
:10D64000241F00213A20FFF709FE064600213A2058
:10D65000FFF704FE46EA0026681EA04200D26C1EB8
:10D6600006F0800008B9002403E039462046FFF7A1
:10D670002FFE094801780C20FFF77DFE0648008840
:10D68000C0F307210D20FFF776FE40221E218020E7
:10D69000FFF704FE2046AAE78800002008B5012114
:10D6A0002020FCF7F3FF4FF47040ADF8000010208D
:10D6B0008DF8030003208DF802006946FE48FCF750
:10D6C000F7FC01211020FCF7E1FF4020ADF800003D
:10D6D00010208DF8030003208DF802006946F748FA
:10D6E000FCF7E6FC01214020FCF7D0FF4FF4C040DE
:10D6F000ADF8000010208DF8030003208DF8020023
:10D700006946EF48FCF7D4FC012140F20440FCF7E5
:10D71000BDFF3F20ADF8000000208DF803006946F2
:10D72000E848FCF7C5FC01214FF48260FCF7AEFF2E
:10D730000420ADF8000000208DF803006946DF48A2
:10D74000FCF7B6FC01214FF40470FCF79FFF10209A
:10D75000ADF8000000208DF803006946D748FCF7BB
:10D76000A7FC08BD00B585B04FF40040FCF7E0FE13
:10D7700001214802FCF78AFF002000908DF8040088
:10D780008DF805004FF460200290002003900120E6
:10D790008DF810006946CC48FCF79BF90121CA4876
:10D7A000FCF7C3F9C848FCF7E2F900BFC648FCF72C
:10D7B000E3F90128FAD0C448FCF7E8F900BFC248F1
:10D7C000FCF7E9F90128FAD04FF40040FCF7B0FE6D
:10D7D00001218802FCF75AFF002000908DF8040018
:10D7E0008DF805004FF46020029000200390072080
:10D7F0008DF810006946B548FCF76BF90723012244
:10D800000021B248FCF7FDF9072302220121AF48AD
:10D81000FCF7F7F9072303220221AC48FCF7F1F9E2
:10D82000072304220321A948FCF7EBF9072305226B
:10D830000421A648FCF7E5F9072306220521A348A1
:10D84000FCF7DFF907231A460C21A048FCF7D9F9A9
:10D8500001219E48FCF769F99C48FCF788F900BF54
:10D860009A48FCF789F90128FAD09848FCF78EF914
:10D8700000BF9648FCF78FF90128FAD005B000BD2B
:10D8800010B5FFF70BFFFFF76DFF10BD70B5044635
:10D890000D46002602212046FCF701FB052301224C
:10D8A00029462046FCF7ADF901212046FCF77DF919
:10D8B00000BF02212046FCF7E9FA0028F9D02046F3
:10D8C000FCF706FA0646304670BD10B5C0EBC00244
:10D8D00002EB00127E4B03EB420292F8231001F0A0
:10D8E0000F01C0EBC00202EB001203EB420292F800
:10D8F0002820012A63D1C0EBC00202EB001203EB27
:10D90000420292F82D20142A59DBC0EBC00202EB30
:10D91000001203EB420292F82D20182A4FDCC0EBD4
:10D92000C00202EB001203EB420292F82320C2F382
:10D930000312022A0AD10122664B1A600022664BAA
:10D94000C3F8B8210222654B1A5451E1C0EBC00262
:10D9500002EB00125E4B03EB420292F82320C2F36B
:10D960000312032A0AD100225A4B1A6001225A4B91
:10D97000C3F8B8210322594B1A5439E1C0EBC00255
:10D9800002EB0012524B03EB420292F82320C2F347
:10D990000312012A09D100224E4B1A604E4BC3F8E4
:10D9A000B82101224D4B1A5422E10122494B1A6041
:10D9B000494BC3F8B8210022484B1A5418E1C0EB78
:10D9C000C00202EB0012424B03EB420292F8282005
:10D9D000012A2AD1C0EBC00202EB001203EB420283
:10D9E00092F82D200B2A09D0C0EBC00202EB0012E6
:10D9F00003EB420292F82D20112A16D10122354B59
:10DA00001A600022344BC3F8B82141F0200252B210
:10DA1000C0EBC00303EB00132D4C04EB430383F86E
:10DA2000232002222D4B1A54E2E0C0EBC00202EB8D
:10DA30000012274B03EB420292F82820012A4FD113
:10DA4000C0EBC00202EB001203EB420292F82D2061
:10DA5000132A45D100221F4B1A6001221E4BC3F826
:10DA6000B821C0EBC00202EB0012194B03EB4202DB
:10DA700092F8232002F00F02C0EBC00303EB001367
:10DA8000134C04EB430383F82320C0EBC00202EBEA
:10DA90000012234603EB420292F9232042F03002A7
:10DAA000C0EBC00303EB001304EB430383F8232014
:10DAB00003220A4B1A549BE000140140001001405D
:10DAC00000180140000801400024014000280140E6
:10DAD000E8750020B4012342000023420A7A0020A6
